@ba10 ; Affinity 
@bb01 ; MemBank 
@bc03 ; Command 
; ***************************************** 
; E10F0001 
; Firmware_1-18_LEDs_500ns 
; Fri 02/23/2024 
; ***************************************** 
:020000020A00F2
:1000000085C0000081E07DC082E07BC083E079C0D4
:1000100084E077C085E075C086E073C087E071C07A
:1000200088E06FC089E06DC08AE06BC08BE069C07A
:100030008CE067C0CEC100008EE063C08FE061C07D
:1000400080E15FC081E15DC082E15BC083E159C0B6
:1000500084E157C085E155C086E153C087E151C0B6
:1000600088E14FC089E14DC08AE14BC08BE149C0B6
:100070008CE147C034C100008EE143C08FE141C034
:1000800080E23FC081E23DC082E23BC083E239C0F2
:1000900084E237C085E235C086E233C087E231C0F2
:1000A00088E22FC089E22DC08AE22BC08BE229C0F2
:1000B0008CE227C08DE225C08EE223C08FE221C0F2
:1000C00080E31FC081E31DC082E31BC083E319C02E
:1000D00084E317C085E315C086E313C087E311C02E
:1000E00088E30FC089E30DC08AE30BC08BE309C02E
:1000F0008CE307C08DE305C08EE303C08FE301C02E
:1001000005C00C94F31318958E5D4E82F89422244A
:10011000A2E5A0934208E8EDE0933400E5E8E0931F
:100120000110E8EDE4BF20921001AAE04A2EA3E0FE
:100130005A2EA0910014A23108F0A2E1A3953A2E04
:10014000E0E0F9E6C3E1D1E021922197E9F7A8EDDB
:10015000B8E0A0933400B0930001A0915101A0FD3C
:10016000FCCFA1E2A0935001A0914101A2FDFCCFE0
:10017000A0E0B0E4A0934A01B0934B01AFE0B9E630
:10018000ADBFBEBFA8EDB4E2A0933400B093680049
:10019000A3E8A093A200A1E4A093A006A09101145B
:1001A000A093006AA093A306E3E0E0930006E7E0D3
:1001B000E0930106E5E0E0930206E5E1E09308063E
:1001C000E1E0E0930A06E1E4E0931202E3E0E09369
:1001D0003F02E0934102A1E0A093010BA1E0A093B4
:1001E000040BACE0B0E0A0930C0BB0930D0BA1E0BE
:1001F000A093000BA1E0A093110BA1E0A093150B1D
:10020000A1E1A093140BA3EFB0E0A0931C0BB0935B
:100210001D0BA1E0A093100B089A009A099A019A6D
:100220000A9A029A0B9A039A0C9A049A0D9A059AC2
:100230000E9A069A0F9A079A4B9A439A689A609A6E
:10024000699A619A6A9A629A6B9A639A6C9A649AAA
:100250006D9A659A6F9A679A489A409AAD9AA59A4C
:10026000A8E0A09351044198C0E0DAE6E0E0F3E1B1
:10027000AC9AA0910060A33C21F0AA95A0930060E5
:100280004FD13CD14BD13AD1AC98B8E0519BFECF85
:100290005199FECFBA95D1F7A8EDBBE0A0933400F9
:1002A000B09300014A98429A2CBA89C074E0A8E041
:1002B000BFEF409251040090060B0092060B23DF23
:1002C0000995B3992CBAB1992CBA0CB20A940CBA0C
:1002D00009F489C220921A0B20921B0BF1CFA09334
:1002E0005104B09349040FDF7093A704A091060B4B
:1002F000A093060B519BFECF09957093A704009025
:10030000060B0092060B0694AA1F519BFECF09957F
:100310007093A7040090060B0092060B0694AA1F88
:10032000519BFECF09957093A7040090060B009295
:10033000060B0694AA1F519BFECF09957093A70444
:100340000090060B0092060B0694AA1F519BFECF4D
:1003500009957093A7040090060B0092060B069473
:10036000AA1F519BFECF09957093A7040090060B1E
:100370000092060B0694AA1F519BFECF0995C31548
:1003800099F07093A7040090060B0092060B069458
:10039000AA1F519BFECFA99309957093A704A09122
:1003A000060BA093060BA6CF509230020090060BCE
:1003B0000092060B0694AA1FA993F89400C089D056
:1003C00078940000F89400C000C000C000C0000095
:1003D000F6CF099520923002A8E0A0935104A89589
:1003E000C0E0DAE600000995A991A093A30600C039
:1003F000000000C000C000C000000995699000C066
:1004000000C00000799000C000C0000009958990EC
:1004100000C000C00000999000C000C00000099515
:10042000A99000C000C00000B99000C000C000004A
:100430000995C99000C000C00000D99000C000C05C
:1004400000000995E99000C000C00000F99000C0CC
:1004500000C000000995099100C000C0000019917A
:1004600000C000C000000995299100C000C0000034
:10047000399100C000C000000995499100C000C03A
:100480000000599100C000C000000995099000C00B
:1004900000C00000099000C000C000000995AFE056
:1004A000B9E6ADBFBEBF00C000C000000995AEE216
:1004B000A093420800C000C000C000C000C00000FF
:1004C00008D0C0E0DAE60090160B0092160B0995F2
:1004D000EDCE0995A0914301A0934301A0FF0BC06D
:1004E00000C000C000000995A0E1A093A70400C0CF
:1004F00000C000C0000000C000C00994A2E3B0E04A
:1005000003C0A6E9B0E000C0099500905301009235
:10051000530100FEF9CF1197B9F7089509D002C031
:100520000AD000C0B2E1E0E00995BA95E9F7089574
:10053000C2E6D5EA03C0C4E7D5EA00C06990799065
:1005400089909990A990B990C990D990E990F99023
:1005500009911991299139914991599109900990DD
:1005600008950000000000000000000000000000EE
:1005700000000000FFFFFFFFFFFFFFFFFFFFFFFF87
:100600006615089A08F40898E9E000C000C00000E8
:1006100008956715099A08F40998E2E100C000C03E
:100620000000089568150A9A08F40A98EBE100C0E2
:1006300000C00000089569150B9A08F40B98E4E2D5
:1006400000C000C0000008956A150C9A08F40C98C8
:10065000EDE200C000C0000008956B150D9A08F48B
:100660000D98E6E300C000C0000008956C150E9AD6
:1006700008F40E98EFE300C000C0000008956D1567
:100680000F9A08F40F98E8E400C000C00000089535
:100690006E154B9A08F44B98E1E500C000C00000CD
:1006A00008956F15689A08F46898EAE500C000C0DC
:1006B000000008956017699A08F46998E3E600C09D
:1006C00000C00000089561176A9A08F46A98ECE681
:1006D00000C000C00000089562176B9A08F46B9880
:1006E000E5E700C000C00000089563176C9A08F4A5
:1006F0006C98EEE700C000C00000089564176D9A82
:1007000008F46D98E7E800C000C000000895651780
:100710006F9A08F46F98E0E900C000C000000895E7
:100720006015489A08F44898E9E900C000C0000044
:1007300008956015AD9A08F4AD98E2EA00C000C0D3
:10074000000008956A95E0E000C000C000C000C04D
:1007500008950C9408000C9409000C940A000C9461
:100760000B000C940C000C940D000C940E000C94D7
:100770000F000C9410000C9411000C9412000C94B7
:1007800013000C9414000C9415000C9416000C9497
:1007900017000C9418000C9419000C941A000C9477
:1007A0001B000C941C000C941D000C941E000C9457
:1007B0001F000C9420000C9421000C9422000C9437
:1007C00023000C9424000C9425000C9426000C9417
:1007D00027000C9428000C9429000C942A000C94F7
:1007E0002B000C942C000C942D000C942E000C94D7
:1007F0002F000C9430000C9431000C9432000C94B7
:1008000033000C9434000C9435000C9436000C9496
:1008100037000C9438000C9439000C943A000C9476
:100820003B000C943C000C943D00FFFFFFFFFFFFDA
:00000001FF
; 
; *** EOF 
; 
; **************[16 LEDs]****************** 
@ba10 ; Affinity [E10F0001] 
@bb03 ; MemBank  [E10E0001] 
@bc03 ; Command 
:020000020140BB
:1000000012FF89A9E718FFFFFFFFFFFFFFFFFFFFB8
:00000001FF
; ***************************************** 
