@ba10 ; Affinity 
@bb01 ; MemBank 
@bc03 ; Command 
; ***************************************** 
; E10F0001 
; Firmware_1-18_LEDs_500ns 
; Sat 04/13/2024 
; ***************************************** 
:020000020A00F2
:100000008AC0000081E084C082E082C083E080C0BA
:1000100084E07EC085E07CC086E07AC087E078C05E
:1000200088E076C089E074C08AE072C08BE070C05E
:100030008CE06EC0F8C300008EE06AC08FE068C03C
:1000400080E166C081E164C082E162C083E160C09A
:1000500084E15EC085E15CC086E15AC087E158C09A
:1000600088E156C089E154C08AE152C08BE150C09A
:100070008CE14EC05EC300008EE14AC08FE148C0F3
:1000800080E246C081E244C082E242C083E240C0D6
:1000900084E23EC085E23CC086E23AC087E238C0D6
:1000A00088E236C089E234C08AE232C08BE230C0D6
:1000B0008CE22EC08DE22CC08EE22AC08FE228C0D6
:1000C00080E326C081E324C082E322C083E320C012
:1000D00084E31EC085E31CC086E31AC087E318C012
:1000E00088E316C089E314C08AE312C08BE310C012
:1000F0008CE30EC08DE30CC08EE30AC08FE308C012
:1001000001000FE1020100009BF21A667665F8819A
:100110000C9479111895F8942224E8EDE0933400BA
:10012000E5E8E0930110E8EDE4BF20921001AAE0B9
:100130004A2EA3E05A2EE0E0F9E6C1E1D1E0219297
:100140002197E9F7A8EDB8E0A0933400B09300013F
:10015000A0915101A0FDFCCFA1E2A0935001A0917C
:100160004101A2FDFCCFA0E0B0E4A0934A01B0930E
:100170004B01AFE0B9E6ADBFBEBFA8EDB4E2A093BE
:100180003400B0936800E3E8E093A200E1E4E09378
:10019000A006EFEFE093A306FFEF3197F1F7E3E05E
:1001A000E0930006E7E0E0930106E5E0E093020655
:1001B000E5E1E0930806E1E0E0930A06E1E4E0937C
:1001C0001202E3E0E0933F02E0934102A1E0A0933A
:1001D000010BA1E0A093040BACE0B0E0A0930C0BEA
:1001E000B0930D0BA1E0A093000BA1E0A093110B25
:1001F000A1E0A093150BA1E1A093140BA3EFB0E035
:10020000A0931C0BB0931D0BA1E0A093100BA8E0D2
:10021000A093510441984A98429A8DD058D2C0E098
:10022000DAE6E0E0F5E1AC9AA0910060A33C21F0B1
:10023000AA95A09300609CD389D398D387D3AC9818
:10024000B8E0519BFECF5199FECFBA95D1F7A8EDFA
:10025000BBE0A0933400B09300012CBADAC20C9436
:1002600008000C9409000C940A000C940B000C94E8
:100270000C000C940D000C940E000C940F000C94C8
:1002800010000C9411000C9412000C9413000C94A8
:1002900014000C9415000C9416000C9417000C9488
:1002A00018000C9419000C941A000C941B000C9468
:1002B0001C000C941D000C941E000C941F000C9448
:1002C00020000C9421000C9422000C9423000C9428
:1002D00024000C9425000C9426000C9427000C9408
:1002E00028000C9429000C942A000C942B000C94E8
:1002F0002C000C942D000C942E000C942F000C94C8
:1003000030000C9431000C9432000C9433000C94A7
:1003100034000C9435000C9436000C9437000C9487
:1003200038000C9439000C943A000C943B000C9467
:100330003C000C943D0087D0F0992DD0F1992DD040
:10034000F2992ED0F39931D0EEB3E21103C0F89BAD
:10035000F9992FD0089A009A099A019A0A9A029A52
:100360000B9A039A0C9A049A0D9A059A0E9A069A79
:100370000F9A079A4B9A439A689A609A699A619A77
:100380006A9A629A6B9A639A6C9A649A6D9A659A61
:100390006F9A679A089552D056C07ED068D053C0E5
:1003A000EFEFE093116963D04EC0209211695FD0E6
:1003B0004AC020924608A89A00C0A09A06D017D03A
:1003C000E2ECE0934608A09A0895A89800C0B3997B
:1003D0000895A89A00C0B39B0895A89800C0B39947
:1003E0000895A89A00C0B39B0895D5DF12C0A898BD
:1003F00000C0B1990895A89A00C0B19B0895A8982B
:1004000000C0B1990895A89A00C0B19B0895C5DFB6
:1004100000C099273197F7FFAC98F7FDAC9AA895E3
:10042000B3999927B19999279A95A1F762CF00902E
:10043000021001FCFCCF00FCFACF089580E326D027
:100440002092001422C0E0E0F4E1C0E1D9E617D028
:10045000E0911069E03108F0E0E1E09310693E2E90
:10046000E0911169E03011F032103A94089583E17F
:100470000DD0E0E1F9E6C0E0D4E101D006C084E0AF
:10048000019009928A95E1F7089581E0D0DF9DE916
:1004900094BF80930010CBCF332400241124E1E0DB
:1004A000E0930A04E0934A04E0936A04E093AA0408
:1004B0006F98679AF4E63197F1F767986F9AFAE0C8
:1004C0003197F1F777990894001C111C00FC3394C4
:1004D0006D98659AF4E63197F1F765986D9AFAE0B0
:1004E0003197F1F775990894001C111C00FC3394A6
:1004F0006C98649AF4E63197F1F764986C9AFAE094
:100500003197F1F774990894001C111C00FC339486
:100510006B98639AF4E63197F1F763986B9AFAE077
:100520003197F1F773990894001C111C00FC339467
:100530006A98629AF4E63197F1F762986A9AFAE05B
:100540003197F1F772990894001C111C00FC339448
:100550006998619AF4E63197F1F76198699AFAE03F
:100560003197F1F771990894001C111C00FC339429
:100570006898609AF4E63197F1F76098689AFAE023
:100580003197F1F770990894001C111C00FC33940A
:100590004B98439AF4E63197F1F743984B9AFAE077
:1005A0003197F1F753990894001C111C00FC339407
:1005B0000F98079AF4E63197F1F707980F9AFAE047
:1005C0003197F1F717990894001C111C00FC339423
:1005D0000E98069AF4E63197F1F706980E9AFAE02B
:1005E0003197F1F716990894001C111C00FC339404
:1005F0000D98059AF4E63197F1F705980D9AFAE00F
:100600003197F1F715990894001C111C00FC3394E4
:100610000C98049AF4E63197F1F704980C9AFAE0F2
:100620003197F1F714990894001C111C00FC3394C5
:100630000B98039AF4E63197F1F703980B9AFAE0D6
:100640003197F1F713990894001C111C00FC3394A6
:100650000A98029AF4E63197F1F702980A9AFAE0BA
:100660003197F1F712990894001C111C00FC339487
:100670000998019AF4E63197F1F70198099AFAE09E
:100680003197F1F711990894001C111C00FC339468
:100690000898009AF4E63197F1F70098089AFAE082
:1006A0003197F1F710990894001C111C00FC339449
:1006B00020920A0420924A0420926A042092AA04FA
:1006C0003092106900921269109213690895809116
:1006D0001169C0E8DBEA8211CEE68211DBEA28D29A
:1006E000C2E9DBEA25D2809110692AD2C0EADBEAAE
:1006F0001FD28091136924D28091126921D22DC218
:1007000074E0A8E0BFEF409251040090060B009205
:10071000060B00DD0995B3992CBAB1992CBA0CB22D
:100720000A940CBA09F4E5CD20921A0B20921B0B07
:10073000F1CFA0935104B0934904ECDC7093A7046B
:10074000A091060BA093060B519BFECF09957093C9
:10075000A7040090060B0092060B0694AA1F519B5B
:10076000FECF09957093A7040090060B0092060B2C
:100770000694AA1F519BFECF09957093A704009081
:10078000060B0092060B0694AA1F519BFECF0995FB
:100790007093A7040090060B0092060B0694AA1F04
:1007A000519BFECF09957093A7040090060B009211
:1007B000060B0694AA1F519BFECF09957093A704C0
:1007C0000090060B0092060B0694AA1F519BFECFC9
:1007D0000995C31599F07093A7040090060B009239
:1007E000060B0694AA1F519BFECFA99309957093FF
:1007F000A704A091060BA093060BA6CF509230023F
:100800000090060B0092060B0694AA1FA993F89479
:1008100000C087D078940000F89400C000C000C0E9
:1008200000C00000F6CF0995A0911069A211209296
:100830003002A8E0A0935104A895C0E0DAE60000D9
:100840000995A0911169A03009F4A991A093A3067C
:100850000090126910901369099500FC699000C01E
:1008600000C001FC799000C000C0099502FC89908D
:1008700000C000C003FC999000C000C0099504FCB2
:10088000A99000C000C005FCB99000C000C0099547
:1008900006FCC99000C000C007FCD99000C000C091
:1008A000099510FCE99000C000C011FCF99000C04F
:1008B00000C0099512FC099100C000C013FC1991F9
:1008C00000C000C0099514FC299100C000C015FCAF
:1008D000399100C000C0099516FC499100C000C0C4
:1008E00017FC599100C000C00995AFE0B9E6ADBF53
:1008F000BEBF00C000C000C000C000C00995AEE28D
:10090000A093420800C000C000C000C000C00000AA
:1009100008D0C0E0DAE60090160B0092160B09959D
:10092000EFCE0995A0914301A0934301A0FF0BC016
:1009300000C000C000000995A0E1A093A70400C07A
:1009400000C000C0000000C000C00994A2E3B0E0F5
:1009500003C0A6E9B0E000C00995009053010092E1
:10096000530100FEF9CF1197B9F7089509D002C0DD
:100970000AD000C0B0E1E0E00995BA95E9F7089522
:10098000CEEAD9EA03C0CEEBD9EA00C069907990EB
:1009900089909990A990B990C990D990E990F990CF
:1009A000099119912991399149915991089500001E
:1009B0000000000000000000000000000000FFFF39
:100A00006615089A08F40898E9E000C000C000C024
:100A100008956715089A08F40998E2E100C000C03B
:100A200000C008956815099A08F40A98EBE100C01F
:100A300000C000C0089569150A9A08F40B98E4E212
:100A400000C000C000C008956A150B9A08F40C9805
:100A5000EDE200C000C000C008956B150C9A08F4C8
:100A60000D98E6E300C000C000C008956C150D9A13
:100A700008F40E98EFE300C000C000C008956D15A3
:100A80000E9A08F40F98E8E400C000C000C0089572
:100A90006E150F9A08F44B98E1E500C000C000C045
:100AA00008956F154B9A08F46898EAE500C000C0F5
:100AB00000C008956017689A08F46998E3E600C0DA
:100AC00000C000C008956117699A08F46A98ECE6BE
:100AD00000C000C000C0089562176A9A08F46B98BD
:100AE000E5E700C000C000C0089563176B9A08F4E2
:100AF0006C98EEE700C000C000C0089564176C9ABF
:100B000008F46D98E7E800C000C000C008956517BC
:100B10006D9A08F46F98E0E900C000C000C0089525
:100B20006F9A6A95E0E000C000C000C000C0089560
:100B30008991821115D08211FBCF089501D00BC08D
:100B40008F93829502D08F9100C08F708A3008F009
:100B5000895D805D05C080E203C0CEEADBEAE8CFB4
:100B60000090440805FEFCCF8093420808950D0ACA
:100B70000A55736573204441433A20206E6F00008C
:100B80000D0A0A55736573204441433A2020796564
:100B900073000D0A4C454420636F756E743A200053
:100BA0000D0A4C4544206D61736B3A2020000A0DFC
:100BB0000000FFFFFFFFFFFFFFFFFFFFFFFFFFFF43
:00000001FF
; 
; *** EOF 
